:100000000C943B000C9400000C9400000C94000035
:100010000C9400000C9400000C9400000C94000060
:100020000C9400000C9400000C9400000C94000050
:100030000C9400000C9400000C9400000C94000040
:100040000C9400000C9400000C9400000C94000030
:100050000C9400001027E80364000A00010000105F
:1000600000011000010025642020200080C0020053
:100070008C026C000000F894EE27ECBBF1E0FBBFB3
:10008000EBBFE5BF8DE0A2E0BB27ED938A95E9F7D2
:1000900080E098E0A0E6ED930197E9F7EEE6F0E066
:1000A00085919591009761F0A591B5910590159076
:1000B000BF01F00105900D920197E1F7FB01F0CF30
:1000C000EFE5EDBFE8E0EEBFC0E6D2E00C949600AD
:1000D000AA93E881E7B98BE18A95F1F7369A349BC8
:1000E000FECF349AE4B1F5B128C10E94550524979A
:1000F000AC81BD818E819F81E0E0F0E064E373E438
:100100000E94E404A0E0B0E08BED94E40E94960429
:10011000A0E0B0E082EC93E40E9446040E944B050C
:100120000E94DC03FBBDEABD28960895E0E0EABB2F
:10013000EBBBE7BBE4E0E8BBEFEFE4BBE0E0E5BB33
:10014000E0E2E1BBE0E0E2BBE2BDE2E8EFBDEAE114
:10015000EEBDEEE4E7BDEFE1E6BDE0E0E9BFE7B903
:10016000E4E8E6B9E0E0E0BFA0E1BAD0A0E0B0DFAB
:10017000A8E8B2E0662777270E9413040E94420590
:100180000E946003E0E0F0EC6FE774E40E94E40496
:10019000A0E0B0E084E393E40E949604E093880238
:1001A000F093890260938A0270938B02E0E6F2E09A
:1001B000FA93EA93E6E6F0E0FA93EA93E091880294
:1001C000F091890260918A0270918B020E94DC0397
:1001D0000E9439050E94500584E00E94130328966E
:1001E000E0E0EA93A0E03DD0A0E6B2E068D0B299AA
:1001F00005C0B29BFECF0E94600377DFB7CFFFCF71
:10020000AA93E881E07111F0AB9A01C0AB98E88144
:10021000E07211F0AC9A01C0AC98E881E07411F082
:10022000AD9A01C0AD98E881E07811F0AE9A01C0B6
:10023000AE988DE08A95F1F7AA9A8DE08A95F1F74C
:10024000AA988DE08A95F1F778C0AA93A881D8DFA3
:10025000E881E295E883A881D3DF85E88A95F1F704
:100260006CC0AA93E881F0E0E457FD4FE081A981DA
:10027000AE0FEBDF5980488022960895A2E00E94DD
:100280006903ACE0E2DFA1E00E946903E0E04E2EEA
:100290005E2E0895AA93A881AA3011F0571448F051
:1002A000E0E0EA934394A42DDCDFA881AA3009F4AE
:1002B00044C05394A89AA881C8DFA8983EC0BA93B6
:1002C000AA931A93A981BA81ED91A983BA831E2FAB
:1002D000E03019F0A12FDEDFF5CF188123960895C5
:1002E000AA93A39AA49AA59AA69AA29AA09AA19A26
:1002F000AA98A898A9987880E881E058E0938E029F
:10030000E881E054E0938F02A4E1B0E00E94A303EF
:100310000E946F030E946F030E946F03A0E270DFD0
:1003200088EC90E00197F1F7A8E28FDFA4E08DDF81
:10033000A5E88BDFA6E089DFA1DF21960895BA93B7
:10034000AA931A930A93AA81BB8112960E943E0532
:10035000309759F1AA81BB8114960E943E058F0106
:10036000309761F00230E0E01E0798F0F801319715
:100370008F01AA81BB811496ED93FC93AA81BB8166
:100380001296ED91FD913196FE93EE933197AC81EB
:10039000A083AA81BB810E943E05FF232AF0ED9134
:1003A000FD913196FE93EE9306C0AA81BB81EFEFDB
:1003B000FFEFED93FC931981088125960895BA9378
:1003C000AA9326970E945A0510E0AC85BD85E0E00F
:1003D000F0E0ED93FC93EA89FB893196EA8BFB8B85
:1003E0003197E4912E2FE03009F415C1E12FE03070
:1003F00039F4253211F411E002C00E9477030AC1DA
:10040000E130A9F4253219F40E94770302C112E009
:1004100040E000E02D3211F401E0FCC02B3211F479
:100420004BE2F8C0203211F440E2F4C002C0E230E6
:1004300039F450E013E0203311F40068EBC003C03E
:10044000E33009F0E7C0203310F02A3308F007C08A
:10045000AAE05A9F502DE22FE0535E0FDBC0E22F3F
:10046000E33649F40E947E03E889F989A481AA93BE
:100470000E948403CEC0E33741F40E947E030E94B1
:100480008A030E9447031E2F0AC0E03761F40E94CE
:100490007E030E948A030E9453031E2F086002609D
:1004A0000F7730E034C0E43611F0E93611F404601F
:1004B00002C0E53731F4E4E5F0E0EE83FF8315E0B8
:1004C0000CC0E83511F4086003C0E83709F0A1C09A
:1004D000EEE5F0E0EE83FF8314E002FF14C00E941B
:1004E0007E030E949403AB85AA233AF4EA85FB8538
:1004F0000E942D05EA87FB874DE2403011F01F5F17
:1005000001C00B7F04C00E947E030E94940300FD83
:1005100011C0151778F407FF08C002FF04C00B7F55
:10052000242F115001C020E301C020E20E94770374
:100530005150EFCF312F01FF17C03030A1F003FF32
:1005400006C0EE81FF812591EE83FF8305C0AE8159
:10055000BF812D91AE83BF830E947703503009F095
:1005600051503150EACF4BC020E3EE81FF810E9411
:100570004705E887F987EE81FF813296EE83FF8396
:10058000E885F985AA85BB85AE17BF0750F02F5FB8
:10059000A885B985EA85FB85EA1BFB0BEA87FB8703
:1005A000EFCF2A3328F003FF02C0295F01C0295D85
:1005B00004FD1AC0213320F4A885B985119709F4E8
:1005C00009C0531710F000FF01C013C020E207FF5D
:1005D0000BC020E3006102FF07C00B7F4A930E941B
:1005E0008403503009F051500E947703503009F0D5
:1005F00051503150A885B985129708F0B5CF00FF4A
:1006000008C0503031F05150E0E2EA930E94840378
:10061000F8CF10E0E0CEAC85BD850E943E050E947B
:10062000610564960895FF92F82E26970E945C0556
:100630000E949C03309719F4EFEFFFEF23C0DE0117
:1006400016960E9429058D010E949C03EE83FF836C
:10065000E0E0E887E987DE011A960E9429050E94FA
:100660003E05FA93EA931A930A93EFE9F1E0FA93BD
:10067000EA93DE011A96A3DE9F01AE81BF81E0E01E
:10068000EC93F9010E9463052A96FF900895BA93AE
:10069000AA93A991B991EE27FF276D91662311F0D6
:1006A0003196FBCF0895BA93AA93AA27BB27E99165
:1006B000F9910590002011F01196FBCFFD010895EE
:1006C000A0918802B091890280918A0290918B0258
:1006D00008950E942501A3E0B0E00C94A303A0E3D9
:1006E0000E94000188EC90E00197F1F708952A93A9
:1006F000AD85BE85EF85F88909950895E889F98962
:100700003497E88BF98B0895AD85BE85EF85F88920
:1007100009950895A889B98914960E943E05EE832B
:10072000FF83AE81BF810895A889B98914960E947C
:100730003E05EA87FB870895DE011C960E94290585
:100740000E943E050895109639F080ED97E00197DC
:10075000F1F7A8951197C9F70895552342F4503839
:1007600011F4E0FF04C03196691F791F6BF050E867
:10077000572711F45F93C8C05F3F31F0660F000C3C
:1007800057956795752F08955F9300200AF0C8C0AC
:10079000C1C050E8192E1522880F991F9527550FB3
:1007A000879550E8072E0522660F771F7527550F8E
:1007B00067950895689401C0E8945F93F2DF7038FC
:1007C00018F07F3F08F4A0C056E1571BAAF45195DA
:1007D00058300EF4593030F0EFEFFFEF6FEF7FE756
:1007E00077F91AC077275523B9F0EE0FFF1F661F60
:1007F000771F5A95D1F710C07727583028F0EF2F80
:10080000F62F672F5850F9CF552331F0769567951D
:10081000F795E7955A95D1F700200AF422D15F9118
:100820000895689401C0E894309760407040B1F03A
:10083000002426F0772312F4009413D1172E7EE1C2
:10084000112032F07A95EE0FFF1F661F111CF9CFB1
:10085000EF2FF62F612D5F938ADF5F9108954F93FD
:10086000AF01FD01DA01AB01BC01CA01402D012C31
:10087000142E4F910895EA0FFB1F681F0895E0950D
:10088000F0956095EF5FFF4F6F4F08955F9381DFA5
:10089000903839F1703821F1572F591B2BF112F490
:1008A000DEDFFACF583118F0AA27BB278827583047
:1008B00028F0AB2FB82F88275850F9CF552329F0AF
:1008C0008695B795A7955A95D9F7502D512572F071
:1008D000D2DF38F46795F795E795739513F420C048
:1008E000BEDF45DF5F910895D8F7FBCFEA1BFB0B16
:1008F000680B51F010F40094C2DF662392F3EE0F00
:10090000FF1F661F7A95CBF7EE27FF27662777270D
:100910005F910895EFEFFFEF6FE77FEF5F9108952D
:10092000EFEFFFEF6FE77FE75F9108955F9331DFB0
:10093000703851F3903841F301240894791F23F45F
:100940001CF300203AF3ECCF0F921F932F933F93A9
:100950004F93112722279927689FA0018F9F302D41
:10096000410D591F6B9F300D411D591F8E9F27D080
:10097000BF9F25D06A9F23D0BE9F1DD0AF9F1BD0A5
:10098000AE9F110D291F391F491F591FE32FF42F47
:10099000652F522F4F913F912F911F910F906623FA
:1009A0002AF0550FEE1FFF1F661F02C073954BF212
:1009B000D4DE5F910895100D211D391F02C0200D56
:1009C000311D491F591F08955F93E3DE703821F4EC
:1009D00011200AF49FCFA4CF903809F495CF0124B9
:1009E0000894970B1BF4D4F30020F3CF792F1F93B7
:1009F0002F933F934F931124112722273327442706
:100A0000552790E2AE17BF078607410730F0AE1BAF
:100A1000BF0B860B410B089401C08894551F221F01
:100A2000331F111CAA1FBB1F881F441F9A9551F723
:100A3000F901612D4F913F912F911F91662332F063
:100A4000550FEE1FFF1F661F7A9543F286DE5F91FA
:100A500008950024AF0DB01D0895F195E195F04083
:100A60000895F09560957095E195FF4F6F4F7F4F1A
:100A700008956F2F660F660B762F0895ED91FC9108
:100A800011970895ED93FD936D937C9308950590D0
:100A9000F491E02D0895E883F9836A837B830895B8
:100AA0007A936A93FA93EA9308959A938A93BA93FE
:100AB000AA9308955A934A933A932A931A930A93BE
:100AC00008955D814C813B812A81198108810895B7
:00000001FF
