:0C0000000C9442000C9400000C940000D2
:10000C000C9400000C9400000C9400000C94000064
:10001C000C9400000C9400000C9400000C94000054
:10002C000C9400000C9400000C9400000C94000044
:10003C000C9400000C9400000C9400000C94000034
:10004C000C9400000C940000000000000000000064
:10005C000000000001000200030000000400050085
:10006C00060000000700080009000400040054000A
:10007C001D006A0258000000F894EE27ECBBF1E07A
:10008C00FBBFEBBFE5BF8DE0A2E0BB27ED938A95EC
:10009C00E9F780E098E0A0E6ED930197E9F7E6E751
:1000AC00F0E085919591009761F0A591B59105903F
:1000BC001590BF01F00105900D920197E1F7FB013E
:1000CC00F0CFEFE5EDBFE8E0EEBFC0E6D2E00C9478
:1000DC00F200BA93AA93AC9AB6D0AC98AD9AB3D0BE
:1000EC00AD98AE9AB0D0AE98AF9AE881F981E05A4B
:1000FC00FD4FE081E095E8BBAAE0B0E00E94310141
:10010C00AF9822960895E0EFE1BBEFE0E2BB839B52
:10011C0006C0829B04C0819B02C0809904C0A4E1EC
:10012C00B0E00E943101839B06C0829B04C0819B7E
:10013C0002C0809950C0839903C0442455240FC039
:10014C00829903C0E1E0F0E009C0819903C0E2E0CC
:10015C00F0E004C0809903C0E3E0F0E02F01949834
:10016C00959A969A979A839B06C0829B04C0819B12
:10017C0002C0809903C0662477242DC0949A959868
:10018C00969A979A839B06C0829B04C0819B02C05F
:10019C00809903C0E1E0F0E01DC0949A959A96987E
:1001AC00979A839B06C0829B04C0819B02C0809956
:1001BC0003C0E2E0F0E00EC0949A959A969A979854
:1001CC00839B06C0829B04C0819B02C0809903C0A4
:1001DC00E3E0F0E03F010895EFEFE7BBE0EFE4BBB5
:1001EC00E1BBEFE0E2BBEFE3E0936002E6E0E0931B
:1001FC006102EBE5E0936202EFE4E0936302E6E672
:10020C00E0936402EDE6E0936502EDE7E0936602AD
:10021C00E7E0E0936702EFE7E0936802EFE6E09334
:10022C00690271DFF2010E943B01E659FD4FDF01CB
:10023C00F301EE0FFF1FAE0FBF1F0E944201DF0143
:10024C0048DFEFCFFFCFE0916002E095E8BBAAE07A
:10025C00B0E00C943101109639F080ED97E00197E5
:10026C00F1F7A8951197C9F70895EE0FFF1FEE0F40
:10027C00FF1FEE0FFF1F0895ED91FC91119708954C
:00000001FF
