:080000000C942A000C9400008E
:100008000C9400000C9400000C9400000C94000068
:100018000C9400000C9400000C9400000C94000058
:100028000C9400000C9400000C9400000C94000048
:100038000C9400000C9400000C9400000C94000038
:100048000C9400000C9400000C940000F894EE2727
:10005800ECBBF1E0FBBFEBBFE5BF8DE0A2E0BB2747
:10006800ED938A95E9F780E098E0A0E6ED93019793
:10007800E9F7EFE5EDBFE8E0EEBFC0E6D2E00C94AB
:100088005300BA93AA93A981AA231AF09098E881F9
:1000980003C0909AE881E150E3BD22960895EFEFFE
:1000A800E1BBE0E0E2BDEAE6E5BDE0E0E4BDE8ECA6
:1000B800E3BDE0E0E9BFA8E3BFEFE3DFFCCFFFCF9C
:00000001FF
