:080000000C942F000C94000089
:100008000C9400000C9400000C9400000C94000068
:100018000C9400000C9400000C9400000C94000058
:100028000C9400000C9400000C9400000C94000048
:100038000C9400000C9400000C9400000C94000038
:100048000C9400000C9400000C94000000000200C6
:10005800040054000000F894EE27ECBBF1E0FBBF6D
:10006800EBBFE5BF8DE0A2E0BB27ED938A95E9F7EA
:1000780080E098E0A0E6ED930197E9F7E6E5F0E087
:1000880085919591009761F0A591B591059015908E
:10009800BF01F00105900D920197E1F7FB01F0CF48
:1000A800EFE5EDBFE8E0EEBFC0E6D2E00C945C00FF
:1000B800EFEFEABBE0E0E7BBE0E2E8BBECEFE093A0
:1000C8006002E0E6E0936102EAEDE0936202E2EFAB
:1000D800E0936302E6E6E0936402E6EBE0936502F0
:1000E800EEEBE0936602E0EEE0936702EEEFE0935A
:1000F8006802E6EFE0936902A0E6B2E0A40DB51D40
:10010800EC91EBBBB59910C0A4E1B0E00E949A0055
:10011800B59BFECFF20131962F01EAE0F0E0E4153D
:10012800F50511F444245524E7CFFFCF109639F094
:1001380080ED97E00197F1F7A8951197C9F7089511
:00000001FF
