:060000000C944A000C9470
:1000060000000C9400000C9477000C9400000C94F3
:1000160000000C9400000C9400000C9400000C945A
:1000260000000C9400000C9400000C9400000C944A
:1000360000000C9400000C9400000C9400000C943A
:1000460000000C9400000C9400000C940000102793
:10005600E80364000A00010000100001100001001E
:100066000000000054696D6572203A202564202046
:1000760000436F756E74203A20256420200080C0EE
:100086000400040066000200740284000000F89474
:10009600EE27ECBBF1E0FBBFEBBFE5BF8DE0A2E0D6
:1000A600BB27ED938A95E9F780E098E0A0E6ED930B
:1000B6000197E9F7E6E8F0E085919591009761F000
:1000C600A591B59105901590BF01F00105900D928F
:1000D6000197E1F7FB01F0CFEFE5EDBFE8E0EEBFFA
:1000E600C0E6D2E00C948300EA93FA93EFB7EA9362
:1000F600F30131963F01E991EFBFF991E991189526
:10010600EFEFEABBE8BBEBB7E062EBBFE0E0E5BFD1
:10011600E4BFE0E2EABFA0E196D07894E0E6F2E040
:10012600FA93EA93EAE6F0E0FA93EA93F20131965B
:100136002F0131970E941603A0E00E942103E0E6FA
:10014600F2E0FA93EA93E7E7F0E0FA93EA93F30131
:100156000E941603A1E00E942103A4EFB1E00E94D1
:100166006103DCCFFFCFAA93E881E07111F0DB9A3F
:1001760001C0DB98E881E07211F0DC9A01C0DC98DE
:10018600E881E07411F0DD9A01C0DD98E881E0783D
:1001960011F0DE9A01C0DE988DE08A95F1F7DA9AC1
:1001A6008DE08A95F1F7DA988DE08A95F1F778C0B7
:1001B600AA93A881D8DFE881E295E883A881D3DFF6
:1001C60085E88A95F1F76CC0AA93E881F0E0EC58CF
:1001D600FD4FE081A981AE0FEBDF998088802296E2
:1001E6000895A2E00E942703ACE0E2DFA1E00E94AE
:1001F6002703E0E08E2E9E2E0895AA93A881AA30AA
:1002060011F09B1448F0E0E0EA938394A82DDCDF1C
:10021600A881AA3009F444C09394D89AA881C8DF6B
:10022600D8983EC0BA93AA931A93A981BA81ED9140
:10023600A983BA831E2FE03019F0A12FDEDFF5CF98
:10024600188123960895AA93D39AD49AD59AD69AC2
:10025600D29AD09AD19ADA98D898D998B880E88163
:10026600E058E0937602E881E054E0937702A4E157
:10027600B0E00E9461030E942D030E942D030E949C
:100286002D03A0E270DF88EC90E00197F1F7A8E279
:100296008FDFA4E08DDFA5E88BDFA6E089DFA1DF95
:1002A60021960895BA93AA931A930A93AA81BB81B9
:1002B60012960E947803309759F1AA81BB81149651
:1002C6000E9478038F01309761F00230E0E01E074C
:1002D60098F0F80131978F01AA81BB811496ED93AE
:1002E600FC93AA81BB811296ED91FD913196FE9306
:1002F600EE933197AC81A083AA81BB810E947803DB
:10030600FF232AF0ED91FD913196FE93EE9306C000
:10031600AA81BB81EFEFFFEFED93FC931981088172
:1003260025960895BA93AA9326970E94850310E00E
:10033600AC85BD85E0E0F0E0ED93FC93EA89FB89AE
:100346003196EA8BFB8B3197E4912E2FE03009F43E
:1003560015C1E12FE03039F4253211F411E002C065
:100366000E9435030AC1E130A9F4253219F40E942E
:10037600350302C112E040E000E02D3211F401E045
:10038600FCC02B3211F44BE2F8C0203211F440E2EB
:10039600F4C002C0E23039F450E013E0203311F427
:1003A6000068EBC003C0E33009F0E7C0203310F06B
:1003B6002A3308F007C0AAE05A9F502DE22FE053D7
:1003C6005E0FDBC0E22FE33649F40E943C03E88966
:1003D600F989A481AA930E944203CEC0E33741F46F
:1003E6000E943C030E9448030E94FD021E2F0AC081
:1003F600E03761F40E943C030E9448030E9409030F
:100406001E2F086002600F7730E034C0E43611F02A
:10041600E93611F4046002C0E53731F4E4E5F0E0B2
:10042600EE83FF8315E00CC0E83511F4086003C0C5
:10043600E83709F0A1C0EEE5F0E0EE83FF8314E0B3
:1004460002FF14C00E943C030E945203AB85AA23FC
:100456003AF4EA85FB850E946F03EA87FB874DE243
:10046600403011F01F5F01C00B7F04C00E943C03A7
:100476000E94520300FD11C0151778F407FF08C04B
:1004860002FF04C00B7F242F115001C020E301C0DE
:1004960020E20E9435035150EFCF312F01FF17C0E4
:1004A6003030A1F003FF06C0EE81FF812591EE8377
:1004B600FF8305C0AE81BF812D91AE83BF830E94AD
:1004C6003503503009F051503150EACF4BC020E38C
:1004D600EE81FF810E947C03E887F987EE81FF8128
:1004E6003296EE83FF83E885F985AA85BB85AE172C
:1004F600BF0750F02F5FA885B985EA85FB85EA1B03
:10050600FB0BEA87FB87EFCF2A3328F003FF02C0F5
:10051600295F01C0295D04FD1AC0213320F4A88596
:10052600B985119709F409C0531710F000FF01C0EF
:1005360013C020E207FF0BC020E3006102FF07C0E3
:100546000B7F4A930E944203503009F051500E949B
:100556003503503009F051503150A885B9851297AE
:1005660008F0B5CF00FF08C0503031F05150E0E23E
:10057600EA930E944203F8CF10E0E0CEAC85BD8539
:100586000E9478030E948C0364960895FF92F82EC9
:1005960026970E9487030E945A03309719F4EFEFBB
:1005A600FFEF23C0DE0116960E946B038D010E94A9
:1005B6005A03EE83FF83E0E0E887E987DE011A96B7
:1005C6000E946B030E947803FA93EA931A930A93A4
:1005D600E5E5F1E0FA93EA93DE011A96A3DE9F01C0
:1005E600AE81BF81E0E0EC93F9010E948E032A966A
:1005F600FF900895BA93AA93A991B991EE27FF2780
:100606006D91662311F03196FBCF0895BA93AA93A4
:10061600AA27BB27E991F9910590002011F01196C0
:10062600FBCFFD0108950E9473030E94800384E0BE
:100636000E94C9022896E0E0EA9308950E94E70026
:10064600A0E6B2E00C9415010E94DB00A3E0B0E046
:100656000C946103A0E30E94B60088EC90E0019739
:10066600F1F708952A93AD85BE85EF85F88909953A
:100676000895E889F9893497E88BF98B0895AD8553
:10068600BE85EF85F88909950895A889B9891496D4
:100696000E947803EE83FF83AE81BF810895A88907
:1006A600B98914960E947803EA87FB870895DE01CC
:1006B6001C960E946B030E9478030895109639F0E9
:1006C60080ED97E00197F1F7A8951197C9F708957E
:1006D6000024AF0DB01D0895F195E195F040089501
:1006E6006F2F660F660B762F0895ED91FC9111978B
:1006F60008950590F491E02D08957A936A93FA93FC
:10070600EA9308955A934A933A932A931A930A932B
:1007160008955D814C813B812A8119810881089564
:00000001FF
