:0C0000000C9443000C9400000C940000D1
:10000C000C9400000C9400000C9400000C94000064
:10001C000C9400000C9400000C9400000C94000054
:10002C000C9400000C9400000C9400000C94000044
:10003C000C9400000C9400000C9400000C94000034
:10004C000C9400000C94000056616C7565203D20EA
:10005C0025302E326620200080C02D4E414E0000EF
:10006C0001002D4E414E00494E4600000200740224
:10007C006400010078026C000000F894EE27ECBBE1
:10008C00F1E0FBBFEBBFE5BF8DE0A2E0BB27ED933A
:10009C008A95E9F780E098E0A0E6ED930197E9F7FF
:1000AC00E8E7F0E085919591009761F0A591B59105
:1000BC0005901590BF01F00105900D920197E1F7A5
:1000CC00FB01F0CFEFE5EDBFE8E0EEBFC0E6D2E01C
:1000DC000C947D00AA93E881E7B98BE18A95F1F73E
:1000EC00369A349BFECF349AE4B1F5B1EAC0E0E223
:1000FC00EABBE0E0E7B9E3E8E6B9E0E0E0BFA0E1A5
:10010C00B3D02497A4E0E6DF662777270E94540734
:10011C000E94D4050E94D705E0E0F0E060EA70E4AC
:10012C000E94DE07DF01CB01E0E0F0EC6FE774E446
:10013C000E942C080E94D405E0E6F2E0FA93EA93C0
:10014C00E4E5F0E0FA93EA930E94DA050E941509BF
:10015C0084E00E9491042896E0E0EA93A0E045D068
:10016C00A0E6B2E070D00E94D705E0E0F0E060E2DB
:10017C0070E40E94710809F008F402C0DD9A01C015
:10018C00DD982496BECFFFCFAA93E881E07111F0E1
:10019C00AB9A01C0AB98E881E07211F0AC9A01C047
:1001AC00AC98E881E07411F0AD9A01C0AD98E8818B
:1001BC00E07811F0AE9A01C0AE988DE08A95F1F717
:1001CC00AA9A8DE08A95F1F7AA988DE08A95F1F7B5
:1001DC0078C0AA93A881D8DFE881E295E883A8814A
:1001EC00D3DF85E88A95F1F76CC0AA93E881F0E03B
:1001FC00EC58FD4FE081A981AE0FEBDF59804880B0
:10020C0022960895A2E00E94DF05ACE0E2DFA1E0B7
:10021C000E94DF05E0E04E2E5E2E0895AA93A88181
:10022C00AA3011F0571448F0E0E0EA934394A42D5F
:10023C00DCDFA881AA3009F444C05394A89AA881A1
:10024C00C8DFA8983EC0BA93AA931A93A981BA8121
:10025C00ED91A983BA831E2FE03019F0A12FDEDFB8
:10026C00F5CF188123960895AA93A39AA49AA59AD8
:10027C00A69AA29AA09AA19AAA98A898A9987880C6
:10028C00E881E058E0937602E881E054E09377024D
:10029C00A4E1B0E00E94DE060E94E5050E94E5059F
:1002AC000E94E505A0E270DF88EC90E00197F1F781
:1002BC00A8E28FDFA4E08DDFA5E88BDFA6E089DF65
:1002CC00A1DF21960895BA93AA931A930A93AA814F
:1002DC00BB8112960E94FC08309729F1AA81BB8140
:1002EC0014960E94FC088F01309761F00230E0E018
:1002FC001E0780F0F80131978F01AA81BB811496FB
:10030C00ED93FC93AA81BB8112960E94ED05319767
:10031C00AC81A083AA81BB810E94FC08FF2312F050
:10032C000E94ED0506C0AA81BB81EFEFFFEFED93B4
:10033C00FC9319810881259608950E94F305E0E845
:10034C00EA83EFE3EB830E943209EE85FF85EF3FF2
:10035C00AFEFFA0749F4E885F985FA93EA93A6E634
:10036C00B0E00E94C504B9C0EF3FAFE7FA0749F40B
:10037C00E885F985FA93EA93A7E6B0E00E94C504F4
:10038C00ACC0AB85A73010F0E6E0EB871B85E12F06
:10039C001150E03019F00E94FA05F9CFEC85FD857B
:1003AC006E857F850E942C0921F430E00E94FA05AD
:1003BC002DC03B850E94090609F008F40BC00E9471
:1003CC00FA050E94090628F00E9411060E941606E2
:1003DC00F8CF0DC00E94090640F40E9411060E943D
:1003EC0022060E9429063150F5CF0E94FA05EC85B1
:1003FC00FD856E857F850E942E060E9429060E942F
:10040C00090620F00E9411060E94160610E0EB85EA
:10041C00E117B8F1AC81BD818E819F810E943506B8
:10042C000E942E06DF01CB010E941C05EC83FD838C
:10043C006E837F830E94DA050E9411060E942C08AD
:10044C000E941B070E2F0E943C060E944306FF27AA
:10045C00662777270E945407AC81BD818E819F81CE
:10046C000E94DE070E9411060E9448060E9429067F
:10047C00E12F1F5FE03059F60E943C06EEE2EC9350
:10048C00C6CF0E944D063197AA85A08330302CF43C
:10049C003195A885B985EDE203C0A885B985EBE255
:1004AC00EC930E944D060E944D063197BF01A32F7D
:1004BC00EAE00E94B608E05DDB01EC930E944D0679
:1004CC003197BF01A32FEAE00E94E008E05DDB0159
:1004DC00EC93A885B985E0E0EC930E94390960960D
:1004EC000895BA93AA93EF9761970E94300910E090
:1004FC00FE01E85AFF4F0190F081E02DE887F98763
:10050C00FE01EA5AFF4F0190F081E02DEE83FF834C
:10051C00AE81BF81E0E0F0E0ED93FC93DE01A45AE4
:10052C00BF4F0E94ED053197E4912E2FE03009F476
:10053C00E9C1E12FE03039F4253211F411E002C0A9
:10054C000E945306DEC1E130C1F4253219F40E9439
:10055C005306D6C112E0E0E0ED8B00E02D3211F431
:10056C0001E0CFC12B3219F4EBE2ED8BCAC1203282
:10057C0019F4E0E2ED8BC5C102C0E23039F450E071
:10058C0013E0203311F40068BCC102C0E33091F4D5
:10059C00203310F02A3308F007C0AAE05A9F502DE0
:1005AC00E22FE0535E0FADC140E02E3211F414E0A7
:1005BC00A8C10FC0E43099F4203310F02A3308F0AE
:1005CC0008C00062AAE04A9F402DE22FE0534E0F74
:1005DC0098C12C3619F4026015E093C103C0E530C4
:1005EC0009F08FC1E22FE33659F40E945A060E949B
:1005FC0061060E945A06A481AA930E94680680C1D3
:10060C00E53411F0E53609F403C0E63609F048C0CC
:10061C00FE017696EE87FF870E946E060E94000907
:10062C000E9475060E947A06AD85AA2332F0AD8928
:10063C00AB3259F0A03281F017C00E947C060E94A8
:10064C00E8060E947506EDE2ED8B07FF05C0ED890B
:10065C00EA930E94680608C0EE85FF853196EE8706
:10066C00FF873197AD89A08305FF46E0263651F40C
:10067C000E947C060E9415094A93AB89BC890E9492
:10068C00330509C00E947C060E9415094A932A93DF
:10069C00AC89BD8952DEFE0176960E9481061EC091
:1006AC00E33739F40E947A060E9489060E9481067B
:1006BC000EC0E037C1F40E947A060E948906EE87CC
:1006CC00FF87AE85BF850E94DE041E2F08600F7762
:1006DC00403011F0411708F001C0142F40E0E0E069
:1006EC00EC8B30E06DC0E43611F0E93611F40460A7
:1006FC0002C0E537A1F4EAE0EC8B01FF08C0E0E0B2
:10070C00FAEC6AE97BE30E948E061AE022C0E0E173
:10071C00F7E260E070E00E948E0615E01AC0E83542
:10072C0011F4086003C0E83709F0EAC0E0E1EC8B93
:10073C0001FF08C0E0E0F0E060E070E10E948E068E
:10074C0018E007C0E0E0F0E160E070E00E948E0687
:10075C0014E0403011F00F7701C041E001FF08C0F8
:10076C000E947A060E946E0614960E9400090FC021
:10077C0002FF07C00E947A060E9489060E94A30805
:10078C0006C00E947A060E94890666277727EA87A8
:10079C00FB876C877D8702FF12C0AD85AA2342F4CC
:1007AC000E947C060E9495080E947506EDE2ED8B76
:1007BC00ED89E03019F01F5F4F5F01C00B7F342FC4
:1007CC0000FD14C0151710F4351708F00FC007FF03
:1007DC0008C002FF04C00B7F2D89115001C020E31B
:1007EC0001C020E20E9453065150ECCF141790F434
:1007FC00006102FF06C00E94930609F0515011508F
:10080C004150E0E3EA930E946806503009F05150E1
:10081C004150ECCF312FEC89E030B9F43030A1F0FD
:10082C0003FF06C0EE85FF852591EE87FF8705C087
:10083C00AE85BF852D91AE87BF870E945306503081
:10084C0009F051503150EACF51C00E94A5060E94C8
:10085C00BB082E2F2A3030F003FF02C0295C01C0E8
:10086C00295A01C0205D04FD21C0213360F4A88900
:10087C00B9898A899B89A130E0E0BE07E0E08E0748
:10088C00E0E09E0709F40BC0431740F4531710F037
:10089C0000FF01C010C020E207FF08C020E3006188
:1008AC0002FF04C00E94930609F051500E945306A7
:1008BC00503009F0515031500E94A5060E94EC08AE
:1008CC000E947506EC89A889B9898A899B89FF27BA
:1008DC00662777270E94BB080E948E06E889F98953
:1008EC006A897B890E942C0909F0AFCF00FF08C0F0
:1008FC00503031F05150E0E2EA930E946806F8CF94
:10090C0010E00CCEAE81BF810E94FC080E9437091A
:10091C00EF966F960895FF92F82E26970E94320953
:10092C000E94AE06309719F4EFEFFFEF23C0DE0103
:10093C0016960E9491088D010E94AE06EE83FF83ED
:10094C00E0E0E887E987DE011A960E9491080E9490
:10095C00FC08FA93EA931A930A93E9E6F1E0FA9306
:10096C00EA93DE011A96BDDD9F01AE81BF81E0E006
:10097C00EC93F9010E9439092A96FF900895BA93D5
:10098C00AA93E991F991A991B991CD0105900D9294
:10099C000020E1F7FC010895BA93AA93A991B991AB
:1009AC00EE27FF276D91662311F03196FBCF08954A
:1009BC00BA93AA93AA27BB27E991F9910590002035
:1009CC0011F01196FBCFFD0108950E941A097B814D
:1009DC006A81F981E88177FB770F67FD7160972F4A
:1009EC009E5781F078F0983190F4AA27BB2788277E
:1009FC0008948795B795A7959A95D1F7EA23FB2389
:100A0C00682305C0E8947727EE27FF2766276F77C2
:100A1C00769508F4606877F9A991B99189919991C3
:100A2C00EA17FB076807790797FB08950E941A09D4
:100A3C000E94D7050E94EB040E94D40519F40E9471
:100A4C00060909C0E6F70E940609A0E0B0E080E8BC
:100A5C009FE30E94870724960895BFD0E0E0EA83C5
:100A6C00EFE3EB831A930A93EB85FC85EF3FAFEF33
:100A7C00FA0731F474D1AEE6B0E00E94C5048AC026
:100A8C00EF3FAFE7FA0731F46AD1AFE6B0E00E946E
:100A9C00C50480C0AC85AA2352F4E985FA856B8520
:100AAC007C850E94E80660D164D1EDE2EC93A885C8
:100ABC00A73010F0E6E0E8871885E12F1150E03000
:100ACC0021F05ED1CCD061D1F8CF64D10E948E07D9
:100ADC004BD110E0E0E0F0E060E87FE356D15AD172
:100AEC000E94710868F04CD1A7D04FD11F5F17320C
:100AFC0030F035D1A3E7B0E00E94C5044BC0EFCF76
:100B0C00103021F436D1E0E3EC9320C0E12F1150EA
:100B1C00E030E1F035D1A3D09BD0DF01CB010E94B6
:100B2C001C0533D137D10E942C080E941B070E2FB5
:100B3C0020D1A3D0F0E024D10E94A3080E94540736
:100B4C000E94DE0730D19ED00FD1E0CFE885E03097
:100B5C00E9F00FD1EEE2EC93E885E150E887EF5F26
:100B6C00A9F021D169D000D1E985FA856B857C8506
:100B7C000E941B070E2FFDD080D0F0E014D10E94F4
:100B8C00A3080E9454077ED0EFD0E6CFAE81BF8180
:100B9C00E0E0EC93198108812D9608950E941009CC
:100BAC0008950E940B090895EC81FD816E817F816F
:100BBC0008950E94EF00A3E0B0E00C94DE06A0E3E1
:100BCC000E94CA0088EC90E00197F1F70895ED912E
:100BDC00FD913196FE93EE930895BA93AA932497C0
:100BEC00E0E0E883E9830895AC81BD818E819F812B
:100BFC00E0E0F0E060E271E40E94DE07EC83FD834C
:100C0C006E837F830895D0DFAC85BD858E859F85EF
:100C1C000E9471080895AC85BD858E859F850895C9
:100C2C00EDECFCEC6CEC7DE30E94DE07EC87FD87C1
:100C3C006E877F873F5F0895E0E0F0E060E271E44B
:100C4C000E94DE070895EC87FD876E877F870895E5
:100C5C00A0E0B0E080E09FE30E948E070895EDECE9
:100C6C00FCEC6CEC7DE30E94DE070895A885B98549
:100C7C001196A887B98711970895E02FE05DEC9342
:100C8C00E02F08950E941F090E9487070895E885A8
:100C9C00F9853196E887F98708952A93AF81B8854D
:100CAC00E985FA8509950895FE01E65AFF4F0190F2
:100CBC00F081E02D08953497DE01A65ABF4FED93D5
:100CCC00FC930895AF81B885E985FA850995089557
:100CDC00DE01A65ABF4F0D90BC91A02D0895EA8756
:100CEC00FB876C877D870895DFDFE5CFEA85FB8581
:100CFC006C857D850895EE87FF87AE85BF850E9444
:100D0C00D2041E2F0895E4DF14960E94FC08089567
:100D1C00E88BF98B6A8B7B8B08950B7FED89EA93BB
:100D2C00DE01A95ABF4F0D90BC91A02DFE01E75AD0
:100D3C00FF4F0190F081E02D099550300895E8891E
:100D4C00F9896A897B89AA85BB858C859D850895DF
:100D5C00DE011C960E9491080E94FC080895EE8109
:100D6C00FF81FA93EA930895E987FA876B877C876A
:100D7C000895AE81BF811196AE83BF8311970895FC
:100D8C00AA81BB818C819D810895EA83FB836C834E
:100D9C007D830895EA81FB816C817D81A985BA856B
:100DAC008B859C850895A985BA858B859C8508952E
:100DBC00109639F080ED97E00197F1F7A89511970F
:100DCC00C9F7089530976040704009F07058089545
:100DDC00552342F4503811F4E0FF04C03196691FDA
:100DEC00791F6BF050E8572711F45F93CFC05F3F2A
:100DFC0031F0660F000C57956795752F08955F932A
:100E0C0000200AF0CFC0C8C050E8192E1522880F58
:100E1C00991F9527550F879550E8072E0522660FC9
:100E2C00771F7527550F67950895689401C0E8944E
:100E3C005F93F2DF703818F07F3F08F4A7C056E1DB
:100E4C00571BAAF4519558300EF4593030F0EFEF8F
:100E5C00FFEF6FEF7FE777F91AC077275523B9F0CB
:100E6C00EE0FFF1F661F771F5A95D1F710C077271B
:100E7C00583028F0EF2FF62F672F5850F9CF552305
:100E8C0031F076956795F795E7955A95D1F700204F
:100E9C000AF445D15F910895689401C0E8943097A5
:100EAC0060407040B1F0002426F0772312F40094D7
:100EBC0036D1172E7EE1112032F07A95EE0FFF1FFE
:100ECC00661F111CF9CFEF2FF62F612D5F938ADF70
:100EDC005F9108954F93AF01FD01DA01AB01BC01A5
:100EEC00CA01402D012C142E4F910895EA0FFB1FBF
:100EFC00681F0895E095F0956095EF5FFF4F6F4F79
:100F0C0008955F9381DF903871F150E8152604C085
:100F1C005F937ADF903839F1703821F1572F591BD4
:100F2C002BF112F4D7DFFACF583118F0AA27BB27D0
:100F3C008827583028F0AB2FB82F88275850F9CF76
:100F4C00552329F08695B795A7955A95D9F7502D25
:100F5C00512572F0CBDF38F46795F795E7957395CB
:100F6C0013F420C0B7DF3EDF5F910895D8F7FBCFB5
:100F7C00EA1BFB0B680B51F010F40094BBDF6623EB
:100F8C0092F3EE0FFF1F661F7A95CBF7EE27FF2724
:100F9C00662777275F910895EFEFFFEF6FE77FEFFD
:100FAC005F910895EFEFFFEF6FE77FE75F91089593
:100FBC005F932ADF703851F3903841F30124089481
:100FCC00791F23F41CF300203AF3ECCF0F921F93FC
:100FDC002F933F934F93112722279927689FA001A6
:100FEC008F9F302D410D591F6B9F300D411D591F87
:100FFC008E9F27D0BF9F25D06A9F23D0BE9F1DD028
:10100C00AF9F1BD0AE9F110D291F391F491F591FB0
:10101C00E32FF42F652F522F4F913F912F911F915A
:10102C000F9066232AF0550FEE1FFF1F661F02C09C
:10103C0073954BF2CDDE5F910895100D211D391F74
:10104C0002C0200D311D491F591F08955F93DCDE2E
:10105C00703821F411200AF49FCFA4CF903809F4F2
:10106C0095CF01240894970B1BF4D4F30020F3CFF5
:10107C00792F1F932F933F934F93112411272227DE
:10108C0033274427552790E2AE17BF078607410741
:10109C0030F0AE1BBF0B860B410B089401C088943B
:1010AC00551F221F331F111CAA1FBB1F881F441F53
:1010BC009A9551F7F901612D4F913F912F911F9105
:1010CC00662332F0550FEE1FFF1F661F7A9543F211
:1010DC007FDE5F91089599239AF0772342F097175A
:1010EC0048F029F4AE17BF07860720F031F098942A
:1010FC008894089598940894089518948894089561
:10110C007723C2F7971798F3A9F7EA17FB07680735
:10111C0088F399F3ECCF0024AF0DB01D0895F09532
:10112C0060957095E195FF4F6F4F7F4F0895FE2F9F
:10113C00FF0FFF0B6F2F7F2F08956F2F660F660B1E
:10114C00762F0895002498E0AA0F001C0E1A10F4B4
:10115C000E0E01C0A1609A95B9F7EA2FA02D089543
:10116C0039D0F0DF0EF4E19508953F934F935F93E0
:10117C00002411244427552730E2AA0FBB1F881FD7
:10118C00991F001C111C441F551F0E1A1F0A460BD9
:10119C00570B28F40E0E1F1E461F571F01C0A160CF
:1011AC003A9559F7FD01BC01D001CA015F914F91ED
:1011BC003F910895E894A7FF02C0A1956894E7FDBC
:1011CC00E195C0DFEA2F0EF4E1950895CEDFFD0125
:1011DC00BC010895E894E7FF02C0E1956894A7FF6D
:1011EC0004C0A19500F8039400FA0895ED91FC91C8
:1011FC0011970895ED91FD916D917C911397089540
:10120C00E881F9816A817B810895A881B9818A81FD
:10121C009B810895E883F9836A837B8308957A938D
:10122C006A93FA93EA9308959A938A93BA93AA933A
:10123C000895182E862F612D192E972F712D1B2E88
:10124C00BF2FF12D1A2EAE2FE12D0895309760404F
:10125C00704008955A934A933A932A931A930A9397
:10126C0008955D814C813B812A8119810881089503
:00000001FF
